{
  "_format": "hh-sol-artifact-1",
  "contractName": "WavePortal",
  "sourceName": "contracts/WavePortal.sol",
  "abi": [
    {
      "inputs": [],
      "stateMutability": "payable",
      "type": "constructor"
    },
    {
      "anonymous": false,
      "inputs": [
        {
          "indexed": true,
          "internalType": "address",
          "name": "from",
          "type": "address"
        },
        {
          "indexed": false,
          "internalType": "uint256",
          "name": "timestamp",
          "type": "uint256"
        },
        {
          "indexed": false,
          "internalType": "string",
          "name": "message",
          "type": "string"
        },
        {
          "indexed": false,
          "internalType": "bool",
          "name": "isWinner",
          "type": "bool"
        }
      ],
      "name": "NewWave",
      "type": "event"
    },
    {
      "inputs": [],
      "name": "getAllWaves",
      "outputs": [
        {
          "components": [
            {
              "internalType": "address",
              "name": "from",
              "type": "address"
            },
            {
              "internalType": "string",
              "name": "message",
              "type": "string"
            },
            {
              "internalType": "uint256",
              "name": "timestamp",
              "type": "uint256"
            },
            {
              "internalType": "bool",
              "name": "isWinner",
              "type": "bool"
            }
          ],
          "internalType": "struct WavePortal.Wave[]",
          "name": "",
          "type": "tuple[]"
        }
      ],
      "stateMutability": "view",
      "type": "function"
    },
    {
      "inputs": [],
      "name": "getTotalWaves",
      "outputs": [
        {
          "internalType": "uint256",
          "name": "",
          "type": "uint256"
        }
      ],
      "stateMutability": "view",
      "type": "function"
    },
    {
      "inputs": [
        {
          "internalType": "address",
          "name": "",
          "type": "address"
        }
      ],
      "name": "lastWavedAt",
      "outputs": [
        {
          "internalType": "uint256",
          "name": "",
          "type": "uint256"
        }
      ],
      "stateMutability": "view",
      "type": "function"
    },
    {
      "inputs": [],
      "name": "testTotalWaves",
      "outputs": [
        {
          "internalType": "uint256",
          "name": "",
          "type": "uint256"
        }
      ],
      "stateMutability": "view",
      "type": "function"
    },
    {
      "inputs": [
        {
          "internalType": "string",
          "name": "_message",
          "type": "string"
        }
      ],
      "name": "wave",
      "outputs": [],
      "stateMutability": "nonpayable",
      "type": "function"
    }
  ],
  "bytecode": "0x60806040526200004f6040518060400160405280601981526020017f4920616d20534d41525420434f4e54524143542e20504f472e000000000000008152506200007760201b6200070a1760201c565b606444426200005f9190620001c4565b6200006b919062000261565b60018190555062000308565b62000117816040516024016200008e919062000184565b6040516020818303038152906040527f41304fac000000000000000000000000000000000000000000000000000000007bffffffffffffffffffffffffffffffffffffffffffffffffffffffff19166020820180517bffffffffffffffffffffffffffffffffffffffffffffffffffffffff83818316178352505050506200011a60201b60201c565b50565b60008151905060006a636f6e736f6c652e6c6f679050602083016000808483855afa5050505050565b60006200015082620001a8565b6200015c8185620001b3565b93506200016e8185602086016200022b565b6200017981620002f7565b840191505092915050565b60006020820190508181036000830152620001a0818462000143565b905092915050565b600081519050919050565b600082825260208201905092915050565b6000620001d18262000221565b9150620001de8362000221565b9250827fffffffffffffffffffffffffffffffffffffffffffffffffffffffffffffffff0382111562000216576200021562000299565b5b828201905092915050565b6000819050919050565b60005b838110156200024b5780820151818401526020810190506200022e565b838111156200025b576000848401525b50505050565b60006200026e8262000221565b91506200027b8362000221565b9250826200028e576200028d620002c8565b5b828206905092915050565b7f4e487b7100000000000000000000000000000000000000000000000000000000600052601160045260246000fd5b7f4e487b7100000000000000000000000000000000000000000000000000000000600052601260045260246000fd5b6000601f19601f8301169050919050565b61134780620003186000396000f3fe608060405234801561001057600080fd5b50600436106100575760003560e01c80631e656c761461005c578063449d46c01461007a5780639a2cdc0814610096578063a42a4663146100b4578063bd43a908146100e4575b600080fd5b610064610102565b6040516100719190610ecf565b60405180910390f35b610094600480360381019061008f9190610aec565b61010b565b005b61009e61053b565b6040516100ab9190610ecf565b60405180910390f35b6100ce60048036038101906100c99190610ac3565b610586565b6040516100db9190610ecf565b60405180910390f35b6100ec61059e565b6040516100f99190610d86565b60405180910390f35b60008054905090565b42610384600360003373ffffffffffffffffffffffffffffffffffffffff1673ffffffffffffffffffffffffffffffffffffffff168152602001908152602001600020546101599190610fef565b10610199576040517f08c379a000000000000000000000000000000000000000000000000000000000815260040161019090610eaf565b60405180910390fd5b42600360003373ffffffffffffffffffffffffffffffffffffffff1673ffffffffffffffffffffffffffffffffffffffff1681526020019081526020016000208190555060016000808282546101ef9190610fef565b925050819055506102366040518060400160405280601681526020017f257320776176656420772f206d6573736167652025730000000000000000000081525033836107a3565b6064600154446001546102499190610fef565b6102539190610fef565b61025d9190611132565b6001819055506102a46040518060400160405280601881526020017f5261646f6d20736565642067656e6572617465643a2025640000000000000000815250600154610842565b600060326001541115905080156103f1576102f46040518060400160405280600781526020017f257320776f6e2100000000000000000000000000000000000000000000000000815250336108de565b6000655af3107a4000905047811115610342576040517f08c379a000000000000000000000000000000000000000000000000000000000815260040161033990610e6f565b60405180910390fd5b60003373ffffffffffffffffffffffffffffffffffffffff168260405161036890610d71565b60006040518083038185875af1925050503d80600081146103a5576040519150601f19603f3d011682016040523d82523d6000602084013e6103aa565b606091505b50509050806103ee576040517f08c379a00000000000000000000000000000000000000000000000000000000081526004016103e590610e8f565b60405180910390fd5b50505b600260405180608001604052803373ffffffffffffffffffffffffffffffffffffffff168152602001848152602001428152602001831515815250908060018154018082558091505060019003906000526020600020906004020160009091909190915060008201518160000160006101000a81548173ffffffffffffffffffffffffffffffffffffffff021916908373ffffffffffffffffffffffffffffffffffffffff16021790555060208201518160010190805190602001906104b89291906109a3565b506040820151816002015560608201518160030160006101000a81548160ff02191690831515021790555050503373ffffffffffffffffffffffffffffffffffffffff167f6d1607feb02544462392cd79bc9fc3cea2a1dd50600d5b503009b84ae27748ca42848460405161052f93929190610eea565b60405180910390a25050565b600061057e6040518060400160405280600f81526020017f546f74616c2077617665733a2025730000000000000000000000000000000000815250600054610842565b600054905090565b60036020528060005260406000206000915090505481565b60606002805480602002602001604051908101604052809291908181526020016000905b8282101561070157838290600052602060002090600402016040518060800160405290816000820160009054906101000a900473ffffffffffffffffffffffffffffffffffffffff1673ffffffffffffffffffffffffffffffffffffffff1673ffffffffffffffffffffffffffffffffffffffff16815260200160018201805461064b906110cf565b80601f0160208091040260200160405190810160405280929190818152602001828054610677906110cf565b80156106c45780601f10610699576101008083540402835291602001916106c4565b820191906000526020600020905b8154815290600101906020018083116106a757829003601f168201915b50505050508152602001600282015481526020016003820160009054906101000a900460ff161515151581525050815260200190600101906105c2565b50505050905090565b6107a08160405160240161071e9190610da8565b6040516020818303038152906040527f41304fac000000000000000000000000000000000000000000000000000000007bffffffffffffffffffffffffffffffffffffffffffffffffffffffff19166020820180517bffffffffffffffffffffffffffffffffffffffffffffffffffffffff838183161783525050505061097a565b50565b61083d8383836040516024016107bb93929190610dfa565b6040516020818303038152906040527fe0e9ad4f000000000000000000000000000000000000000000000000000000007bffffffffffffffffffffffffffffffffffffffffffffffffffffffff19166020820180517bffffffffffffffffffffffffffffffffffffffffffffffffffffffff838183161783525050505061097a565b505050565b6108da8282604051602401610858929190610e3f565b6040516020818303038152906040527f9710a9d0000000000000000000000000000000000000000000000000000000007bffffffffffffffffffffffffffffffffffffffffffffffffffffffff19166020820180517bffffffffffffffffffffffffffffffffffffffffffffffffffffffff838183161783525050505061097a565b5050565b61097682826040516024016108f4929190610dca565b6040516020818303038152906040527f319af333000000000000000000000000000000000000000000000000000000007bffffffffffffffffffffffffffffffffffffffffffffffffffffffff19166020820180517bffffffffffffffffffffffffffffffffffffffffffffffffffffffff838183161783525050505061097a565b5050565b60008151905060006a636f6e736f6c652e6c6f679050602083016000808483855afa5050505050565b8280546109af906110cf565b90600052602060002090601f0160209004810192826109d15760008555610a18565b82601f106109ea57805160ff1916838001178555610a18565b82800160010185558215610a18579182015b82811115610a175782518255916020019190600101906109fc565b5b509050610a259190610a29565b5090565b5b80821115610a42576000816000905550600101610a2a565b5090565b6000610a59610a5484610f4d565b610f28565b905082815260208101848484011115610a7157600080fd5b610a7c84828561108d565b509392505050565b600081359050610a93816112fa565b92915050565b600082601f830112610aaa57600080fd5b8135610aba848260208601610a46565b91505092915050565b600060208284031215610ad557600080fd5b6000610ae384828501610a84565b91505092915050565b600060208284031215610afe57600080fd5b600082013567ffffffffffffffff811115610b1857600080fd5b610b2484828501610a99565b91505092915050565b6000610b398383610cf0565b905092915050565b610b4a81611045565b82525050565b610b5981611045565b82525050565b6000610b6a82610f8e565b610b748185610fb1565b935083602082028501610b8685610f7e565b8060005b85811015610bc25784840389528151610ba38582610b2d565b9450610bae83610fa4565b925060208a01995050600181019050610b8a565b50829750879550505050505092915050565b610bdd81611057565b82525050565b610bec81611057565b82525050565b6000610bfd82610f99565b610c078185610fcd565b9350610c1781856020860161109c565b610c208161121f565b840191505092915050565b6000610c3682610f99565b610c408185610fde565b9350610c5081856020860161109c565b610c598161121f565b840191505092915050565b6000610c71603483610fde565b9150610c7c82611230565b604082019050919050565b6000610c94602783610fde565b9150610c9f8261127f565b604082019050919050565b6000610cb7600083610fc2565b9150610cc2826112ce565b600082019050919050565b6000610cda600883610fde565b9150610ce5826112d1565b602082019050919050565b6000608083016000830151610d086000860182610b41565b5060208301518482036020860152610d208282610bf2565b9150506040830151610d356040860182610d53565b506060830151610d486060860182610bd4565b508091505092915050565b610d5c81611083565b82525050565b610d6b81611083565b82525050565b6000610d7c82610caa565b9150819050919050565b60006020820190508181036000830152610da08184610b5f565b905092915050565b60006020820190508181036000830152610dc28184610c2b565b905092915050565b60006040820190508181036000830152610de48185610c2b565b9050610df36020830184610b50565b9392505050565b60006060820190508181036000830152610e148186610c2b565b9050610e236020830185610b50565b8181036040830152610e358184610c2b565b9050949350505050565b60006040820190508181036000830152610e598185610c2b565b9050610e686020830184610d62565b9392505050565b60006020820190508181036000830152610e8881610c64565b9050919050565b60006020820190508181036000830152610ea881610c87565b9050919050565b60006020820190508181036000830152610ec881610ccd565b9050919050565b6000602082019050610ee46000830184610d62565b92915050565b6000606082019050610eff6000830186610d62565b8181036020830152610f118185610c2b565b9050610f206040830184610be3565b949350505050565b6000610f32610f43565b9050610f3e8282611101565b919050565b6000604051905090565b600067ffffffffffffffff821115610f6857610f676111f0565b5b610f718261121f565b9050602081019050919050565b6000819050602082019050919050565b600081519050919050565b600081519050919050565b6000602082019050919050565b600082825260208201905092915050565b600081905092915050565b600082825260208201905092915050565b600082825260208201905092915050565b6000610ffa82611083565b915061100583611083565b9250827fffffffffffffffffffffffffffffffffffffffffffffffffffffffffffffffff0382111561103a57611039611163565b5b828201905092915050565b600061105082611063565b9050919050565b60008115159050919050565b600073ffffffffffffffffffffffffffffffffffffffff82169050919050565b6000819050919050565b82818337600083830152505050565b60005b838110156110ba57808201518184015260208101905061109f565b838111156110c9576000848401525b50505050565b600060028204905060018216806110e757607f821691505b602082108114156110fb576110fa6111c1565b5b50919050565b61110a8261121f565b810181811067ffffffffffffffff82111715611129576111286111f0565b5b80604052505050565b600061113d82611083565b915061114883611083565b92508261115857611157611192565b5b828206905092915050565b7f4e487b7100000000000000000000000000000000000000000000000000000000600052601160045260246000fd5b7f4e487b7100000000000000000000000000000000000000000000000000000000600052601260045260246000fd5b7f4e487b7100000000000000000000000000000000000000000000000000000000600052602260045260246000fd5b7f4e487b7100000000000000000000000000000000000000000000000000000000600052604160045260246000fd5b6000601f19601f8301169050919050565b7f547279696e6720746f207769746864726177206d6f7265206d6f6e657920746860008201527f616e2074686520636f6e7472616374206861732e000000000000000000000000602082015250565b7f4661696c656420746f207769746864726177206d6f6e65792066726f6d20636f60008201527f6e74726163742e00000000000000000000000000000000000000000000000000602082015250565b50565b7f576169742031356d000000000000000000000000000000000000000000000000600082015250565b61130381611045565b811461130e57600080fd5b5056fea2646970667358221220236f9d469042e93c5ebfa9dafef4568412a2cec63f04860e44a74a704d53bae664736f6c63430008040033",
  "linkReferences": {},
  "deployedLinkReferences": {}
}